:100000004CC100007BC1000079C1000077C1000035
:1000100075C1000073C1000071C100006FC1000014
:100020006DC100006BC1000069C1000067C1000024
:100030000C941D110C94B50C61C100005FC100004F
:100040005DC100005BC1000059C1000057C1000044
:1000500055C1000053C1000051C100000C94720B47
:100060004DC100000C94BD090C94940947C10000D7
:1000700045C1000043C1000041C100003FC1000074
:100080003DC100003BC1000039C1000037C1000084
:1000900035C1000033C1000031C100002FC1000094
:1000A0002DC100000C942A0E29C1000027C10000B8
:1000B00025C100000C94190E0C94C60D1FC1000040
:1000C0001DC100001BC100000C94B50D17C100003C
:1000D00015C1000013C1000011C100000FC10000D4
:1000E0000DC10000830A860A750A790A7F0ABD0AD3
:1000F0008A0A8E0A940A980A9C0AA20AA60AAA0ADE
:10010000BD0AB00AB40AB80A421A421A421A0D1AB3
:10011000631A711A421A421A0D1A631A000021005A
:10012000240027002A002D003000330001010000C8
:10013000040107010A0100002200250028002B000D
:100140002E003100340002010000050108010B01FE
:10015000000020002300260029002C002F00320080
:100160000001000003010601090105050505070559
:1001700008080808020202020A0A08080404040423
:10018000010101010101010103030303030303034F
:10019000040707070C0C0C0C0C0C0C0C02020202DE
:1001A00006060606060606060B0B0B0B0B0B0B0BC7
:1001B0000102102020080810204010204080020179
:1001C000020108040201010204081020408080405E
:1001D000201008040201800402018040201008045D
:1001E00002010804020101020408102040800102FB
:1001F00004081020408000000A0B02090C0D0E08B4
:1002000007030401000000000000000000000000DF
:1002100000000000000000000000000000000000DE
:10022000000012111000000000000000000000009B
:100230000000000000000000000000008091830228
:10024000882309F10FB6F8940F92E091B602F0916D
:10025000B702C681D781CE0102960E941F118091FC
:10026000EB0281508093EB02809183028150809356
:1002700083020F900FBE8F89988D0E948F1ACE0136
:100280000E948F1ADBCF8091C302823010F00E944F
:10029000E1110E94300AD2CFD31711241FBECFEF35
:1002A000D1E2DEBFCDBF00E00CBF12E0A0E0B2E0C3
:1002B000E4E8FDE300E00BBF02C007900D92A23816
:1002C000B107D9F724E0A2E8B2E001C01D92AE3C2C
:1002D000B207E1F711E0CDE4D1E000E006C02197DC
:1002E0000109802FFE010E94331DCC34D10780E02C
:1002F0000807A9F70E9405180C94C01E81CECF9361
:10030000DF93CDB7DEB760970FB6F894DEBF0FBEB0
:10031000CDBF0E9402119E838D8310E2212E312CCD
:1003200044244A94542C320120EA33E03093F702FB
:100330002093F60280919D0390E09093F9028093C0
:10034000F80280916A0490E09093FB028093FA0295
:1003500080919903853009F0ACC08091A2039091FF
:10036000A303885891098D35910588F480919D03E8
:10037000843041F48091A4039091A503809747971E
:1003800008F4B7C080919D03843408F099C080912F
:100390009D038A3108F413C18091A0039091A103B9
:1003A000843F914078F41092F5021092F40240924A
:1003B000F0025092F1026092F2027092F3028BE02E
:1003C00090E06FC68091A2039091A30385974B970D
:1003D00008F0F5C0E6EAF3E082E090E0C12CD12C11
:1003E0007601AC014F5F5F4F20919D0330E04217D3
:1003F00053075CF4DF0112972D913C91275031098E
:100400002730310508F4BFC0CA010197959587953B
:100410009093F5028093F4020C972CF41092F5025D
:100420001092F402CCC0C092F002D092F102E0929D
:10043000F202F092F30284E090E00AC0C092F0026F
:10044000D092F102E092F202F092F3028BE090E09F
:100450009093ED028093EC028091F0029091F10272
:10046000A091F202B091F3020097A105B10539F015
:1004700098878F838F3F914010F018861F8280915C
:100480008202833010F01092820280918202E82F63
:10049000F0E0EE0FFF1FE257FB4FAF81B885B1834D
:1004A000A0838F5F8093820282E0809399031092F1
:1004B0009D0361E070E0CE0105960E944A1434CF9E
:1004C0008091A4039091A503825491098E9708F01E
:1004D0005ECF80E090E040E050E0BA01FC01EA55D8
:1004E000FC4F208131812950310929303105C0F07C
:1004F0004ECF8091A6039091A7030997099708F022
:1005000041CF1092F5021092F4024092F002509204
:10051000F1026092F2027092F30283E090E0C1C5B2
:10052000FC01E855FC4F20813181275131092231EE
:10053000310518F1208131812650310927303105EC
:1005400008F025CF440F551F661F771F049680388B
:10055000910521F63092F5022092F4024093F002C8
:100560005093F1026093F2027093F302A3E0B0E0C3
:10057000B093ED02A093EC026FCF440F551F661F9E
:10058000771F4160E3CF20813181235131092F3022
:10059000310548F4CC0CDD1CEE1CFF1C6894C0F83F
:1005A000029634961ECF208131812A50310929309C
:1005B000310528F4CC0CDD1CEE1CFF1CF1CF809122
:1005C0009D038A3108F45AC08091A0039091A10341
:1005D0008032934008F4E7CE8091A2039091A30368
:1005E000C697869708F04AC08091A4039091A5030E
:1005F000C697869708F042C0E8EAF3E023E030E0CF
:10060000C12CD12C7601C901019640919D0350E087
:100610008417950754F4DF0112974D915C914C506B
:1006200051094B30510588F001C0C90101979595DA
:1006300087959093F5028093F4020C970CF0FECE10
:100640001092F5021092F40219C080819181859771
:100650004B9750F4CC0CDD1CEE1CFF1C6894C0F8CA
:100660002E5F3F4F3496CFCF808191810C970A97B0
:1006700028F4CC0CDD1CEE1CFF1CF2CF80919D03F6
:10068000823208F458C08091A2039091A303069788
:10069000079708F050C0E6EAF3E082E090E0C12C52
:1006A000D12C76019C012F5F3F4F40919D0350E07C
:1006B00024173507CCF4DF0112974D915C91119707
:1006C0004E5151094731510540F5CC0CDD1CEE1C53
:1006D000FF1C6894C0F84081518134964350510901
:1006E0004530510530F1C901019795958795909353
:1006F000F5028093F40240972CF41092F5021092C8
:10070000F40219C0C092F002D092F102E092F2021B
:10071000F092F3028CE090E09BCE4D915C914C50B6
:1007200051094B30510538F4CC0CDD1CEE1CFF1C7C
:10073000D2CF0296B7CF1C821B82E1E0F0E0FA83B1
:10074000E98380919D038D3078F41C821B8221E027
:1007500030E03A8329838091F8029091F9021816CB
:1007600019060CF467C0BAC049E753E0BE016D5FDB
:100770007F4FCE01019663D5892B39F749E753E0C6
:10078000BE016D5F7F4FCE01019659D50197E9F605
:1007900049E753E0BE016D5F7F4FCE0101964FD513
:1007A000892B99F6812C912C540100E010E0809166
:1007B0009D0390E029813A812817390764F549E7BC
:1007C00053E0BE016D5F7F4FCE01019638D57C01AD
:1007D00049E753E0BE016D5F7F4FCE0101962FD5F3
:1007E00031E0E316F10451F4892B09F0AECF880C07
:1007F000991CAA1CBB1C689480F80AC0EF2809F059
:10080000A4CF019709F0A1CF880C991CAA1CBB1C8E
:100810000F5F1F4FCCCF1093F5020093F40280922C
:10082000F0029092F102A092F202B092F30281E003
:1008300090E00ECEE091F602F091F70282E090E0B7
:100840009A8389838281938189974E9708F046C065
:1008500023E030E03A832983848195810B970A97BE
:1008600008F03CC04CEB51E0BE016D5F7F4FCE0104
:100870000196E5D4892B91F54CEB51E0BE016D5FFB
:100880007F4FCE010196DBD4019741F5812C912C4D
:10089000540100E010E02091F8023091F9028981C2
:1008A0009A81821793070CF022C14CEB51E0BE01F4
:1008B0006D5F7F4FCE010196C2D47C0103301105DC
:1008C00009F0E1C04CEB51E0BE016D5F7F4FCE01FE
:1008D0000196B5D4E816F90609F4D5C0E091F60200
:1008E000F091F70282819381C6978697E0F4848124
:1008F00095814B974597B8F4DF0116967F0136EC4A
:10090000E30EF11C20E030E040E050E060E070E0F9
:1009100080E090E00D911C91119709501109083069
:10092000110508F4F3C080919D03893370F1828131
:100930009381895791098335910508F423C125C016
:10094000D90112966D917C911397665171096131AD
:10095000710508F026C1D701C601880F991FAA1F8B
:10096000BB1F6C017D016894C0F84E5F5F4F2C5F28
:100970003F4F4B33510509F423C1D9016D917C914F
:100980006A50710969307105D8F280919D038232F5
:1009900031F4828193810A97099708F42EC18281EC
:1009A00093818957910983359105D0F480919D03F6
:1009B0008132B0F084819581CA97899788F49F012C
:1009C0002A5F3F4FC12CD12C760143E050E0D90182
:1009D0006D917C916A5071096930710508F42FC1DD
:1009E000828193818C549109C59778F480919D03FD
:1009F000843031F4848195818097479708F485C1CC
:100A000080919D03843408F067C180919D038634F2
:100A100060F1828193810C970B9708F4C3C125C0C4
:100A2000D90112966D917C9113976E5171096731BE
:100A3000710508F0EDC1D701C601880F991FAA1FE3
:100A4000BB1F6C017D016894C0F84E5F5F4F2C5F47
:100A50003F4F4534510509F4C0C1D9016D917C91D6
:100A60006C5071096B307105D8F280919D03883507
:100A700008F436C282819381855891098B3591059E
:100A800008F4D6C12DC24CEB51E0BE016D5F7F4F23
:100A9000CE010196D4D36C010330110561F44CEB07
:100AA00051E0BE016D5F7F4FCE010196C8D3C816DD
:100AB000D90609F013CFE114F10459F4CA94CD28F2
:100AC00009F00CCF880C991CAA1CBB1C689480F8F8
:100AD0000BC0EA94EF2809F001CFCD2809F0FECE33
:100AE000880C991CAA1CBB1C0F5F1F4FD4CE1093FF
:100AF000F5020093F4028092F0029092F102A0922B
:100B0000F202B092F30282E090E0A2CC12960D9134
:100B10001C911397015111090D30110570F11296B6
:100B20000D911C911397045011090530110508F01F
:100B3000FACE01E00E94541D1496AE15BF0509F0CF
:100B4000E9CE2093F0023093F1024093F2025093E9
:100B5000F30200E20E946F1D2093EE023093EF0239
:100B6000E5E0F0E0F093ED02E093EC0220E330E00A
:100B70003093F5022093F4026FCC01E00E94541DE3
:100B80002160DACF84819581CA97899708F0FDCEDC
:100B90009F012A5F3F4FC12CD12C760143E050E0EA
:100BA000ECCE12966D917C91139766507109673067
:100BB000710508F0EACECC0CDD1CEE1CFF1CD5CE76
:100BC0009F012A583F4FD9012D913C912A5031095C
:100BD0002930310508F0D9CE2CE130E03093F50210
:100BE0002093F402C092F002D092F102E092F2025D
:100BF000F092F3028AE090E02BCC20919D03CF018C
:100C0000820F911D820F911DDC0112978D919C9195
:100C10000A97099708F0C3CE1092F5021092F402D9
:100C20004092F0025092F1026092F2027092F3024E
:100C3000E6E0F0E0F093ED02E093EC0236C2D90179
:100C400012966D917C91139766517109613171050E
:100C500098F5D701C601880F991FAA1FBB1F6C0109
:100C60007D016894C0F84E5F5F4F2C5F3F4F433269
:100C7000510509F0ACCE9F012A5B3F4FD9012D9160
:100C80003C912A5031092930310508F0A9CEE0E124
:100C9000F0E0F093F502E093F402C092F002D092FB
:100CA000F102E092F202F092F30226E030E030939B
:100CB000ED022093EC02D0CBD90112966D917C917C
:100CC0001397665071096730710508F089CECC0C16
:100CD000DD1CEE1CFF1CC7CF8481958189549109CE
:100CE000C39708F092CE9F012A5F3F4FBF016A571A
:100CF0007F4FC12CD12C7601D9014D915C91495087
:100D0000510949305105B0F080CE8681978109970D
:100D1000099708F075CE1092F5021092F4024092F5
:100D2000F0025092F1026092F2027092F30287E0B8
:100D300090E0B7C1D90112964D915C91139746513D
:100D4000510941315105F0F4D701C601880F991FAF
:100D5000AA1FBB1F6C017D016894C0F82C5F3F4F38
:100D60006217730749F63092F5022092F402C0929E
:100D7000F002D092F102E092F202F092F30287E0E8
:100D800090E066CBD90112964D915C911397465035
:100D900051094730510508F038CECC0CDD1CEE1C53
:100DA000FF1CDCCF848195810997099708F05DCEFF
:100DB000868197818C974F9708F057CE80859185D3
:100DC00089974D9708F051CE9F01265F3F4FC12C68
:100DD000D12C760145E050E040CE9F0126573F4F91
:100DE000D9012D913C912C5031092B30310508F05F
:100DF0003CCE3092F5022092F402C092F002D092E2
:100E0000F102E092F202F092F30288E090E020CB4F
:100E1000D90112966D917C911397695071096930CF
:100E2000710508F022CECC0CDD1CEE1CFF1C0DCE93
:100E300084819581825491098E9708F051C08F0169
:100E4000045C1F4F8DE190E020E030E040919D0375
:100E500050E04450510984179507ACF4A801425062
:100E60005109DA014D915C914950510948305105C1
:100E700010F136C0D8014D915C9148515109423171
:100E8000510558F1CB010197959587959093F502FF
:100E90008093F4028A9724F1C901330FAA0BBB0B8C
:100EA0008093F0029093F102A093F202B093F302C8
:100EB00089E090E0CDCABC016F5F7F4FD8014D91B2
:100EC0005C914750510947305105A0F6220F331F5E
:100ED000216002960C5F1F4FB9CF220F331FF9CF4D
:100EE00080919D038032E1F4828193810697069779
:100EF000B8F4848195810997099790F49F012A5F3E
:100F00003F4FBF01625C7F4FC12CD12C7601D901CC
:100F10004D915C91465051094630510508F486C008
:100F20002091F8023091F9023C872B872630310559
:100F30000CF4BACA8F010E5F1F4F95ECC92E9DE9C4
:100F4000D92E9CE1E92E91E8F92E83E090E09A8772
:100F50008987D80114966D917C911597AD90BC90BE
:100F600080E090E00E94BD1B6D877E878F87988B05
:100F7000B50180E090E00E94BD1B4B015C012DECAF
:100F80003CEC4CE45FE30E946F1C9B01AC016D855F
:100F90007E858F8598890E94201B87FD19C02DECC6
:100FA0003CEC4CE45FE36D857E858F8598890E94DB
:100FB0006F1C9B01AC01C501B4010E94201BE82FEE
:100FC000880FFF0BEE27FF0FEE1FFF27319602C0A1
:100FD000E0E0F0E0A701960163E971E080E091E0D4
:100FE0000E94D21C6F01FF0FEE08FF08C626D7260D
:100FF000E826F926E985FA853196FA87E9870E5FB2
:101000001F4F2B853C852E173F0709F0A2CFC092BA
:10101000F002D092F102E092F202F092F3023092EA
:10102000F5022092F4028FEF9FEF12CAD9011296B7
:101030004D915C911397495151094331510508F580
:10104000D701C601880F991FAA1FBB1F6C017D0124
:101050006894C0F82C5F3F4F2617370709F057CF29
:101060002EE030E03093F5022093F402C092F002BB
:10107000D092F102E092F202F092F3028FE090E05F
:10108000E7C9D90112964D915C91139749505109C6
:101090004930510508F044CFCC0CDD1CEE1CFF1C80
:1010A000D9CF9093ED028093EC028091F002909161
:1010B000F102A091F202B091F302DAC9E091A60226
:1010C000F091A7028081811103C08FEF9FEF0CC0C8
:1010D000E091A602F091A7020580F681E02D06803E
:1010E000F781E02D8281938190939D0280939C02F1
:1010F0000895CF92DF92EF92FF920F931F93CF93B9
:10110000DF936C017A018B01C0E0D0E0CE15DF05E2
:1011100081F0D8016D918D01D601ED91FC91019086
:10112000F081E02DC6011995892B11F02196EECFA3
:101130007E01C701DF91CF911F910F91FF90EF903A
:10114000DF90CF900895089580E090E008958CEFAF
:1011500092E07AD121E0892B09F420E0822F0895D2
:101160000E94AC1EEF92FF920F931F93CF93DF93D9
:10117000EC0181E0888F9B8D8C8D981305C0E889E8
:10118000F989808185FD25C0F62E0B8D10E00F5F5B
:101190001F4F0F731127E02E8C8DE8120BC00FB676
:1011A00007FCFACFE889F989808185FFF5CFCE0168
:1011B000E5D1F2CF8B8DFE01E80FF11DE35AFF4F11
:1011C000F0829FB7F8940B8FEA89FB898081806257
:1011D0000AC09FB7F894EE89FF896083E889F9898E
:1011E00080818370806480839FBF81E090E0DF9185
:1011F000CF911F910F91FF90EF900895CF93DF93C0
:10120000EC01888D8823C1F0EA89FB89808185FD06
:1012100005C0A889B9898C9186FD0EC00FB607FC60
:10122000F5CF808185FFF2CFA889B9898C9185FFA0
:10123000EDCFCE01A3D1E8CFDF91CF9108958F926A
:101240009F92AF92BF92CF92DF92EF92FF920F9355
:101250001F93CF93DF93FC0120813181E091F8024D
:10126000F091F9022E173F070CF04CC0F901EE0F78
:10127000FF1FA091F602B091F702EA0FFB1FA080BA
:10128000B180217033276901F1E0CF26232B19F4B7
:101290002CE93FEF02C024E630E07A018B01EC013B
:1012A0004901840E951EB401C5011BD4892B89F414
:1012B0008E0C9F1CB401C50114D4892B69F4B701AD
:1012C000680D791DC5010DD4892BF9F023E030E0BC
:1012D00005C021E030E002C022E030E0F80180816A
:1012E00091810196821793071CF49183808308C033
:1012F000F8011182108288819981019699838883EF
:10130000C60105C081E090E002C08FEF9FEFDF9142
:10131000CF911F910F91FF90EF90DF90CF90BF90F2
:10132000AF909F908F9008951F920F920FB60F92DB
:1013300011240BB60F922F933F934F935F936F93AC
:101340007F938F939F93AF93BF93EF93FF938CEF14
:1013500092E014D1FF91EF91BF91AF919F918F9146
:101360007F916F915F914F913F912F910F900BBEA5
:101370000F900FBE0F901F9018951F920F920FB6EF
:101380000F9211240BB60F922F938F939F93EF938D
:10139000FF93E0910C03F0910D038081E091120323
:1013A000F091130382FD12C09081809115038F5F2D
:1013B0008F7320911603821751F0E0911503F0E02E
:1013C000E450FD4F958F8093150301C08081FF91FC
:1013D000EF919F918F912F910F900BBE0F900FBEA9
:1013E0000F901F901895FC01538D448D252F30E0F0
:1013F000842F90E0821B930B541710F0CF96089522
:1014000001970895FC01918D828D981761F0828D6E
:10141000DF01A80FB11D5D968C91928D9F5F9F7328
:10142000928F90E008958FEF9FEF0895FC01918DCA
:10143000828D981731F0828DE80FF11D858D90E037
:1014400008958FEF9FEF0895FC01918D228D892FD4
:1014500090E0805C9F4F821B91098F7399270895BC
:1014600080E090E0892B19F072DE811125C080E0C8
:1014700090E0892B41F080E090E0892B21F00E94E0
:10148000000081111CC080E090E0892B41F080E0D9
:1014900090E0892B21F00E940000811113C080E0B0
:1014A00090E0892BA1F080E090E0892B81F00E94F0
:1014B000000081110AC008950E940000D8CF0E9448
:1014C0000000E1CF0E940000EACF0C9400000895D4
:1014D00090E0FC013197E231F10508F04EC0882719
:1014E000EE58FF4F8F4F0C94331D809180008F7703
:1014F00003C0809180008F7D80938000089580914B
:101500008000877FF9CF84B58F7702C084B58F7D47
:1015100084BD08958091B0008F7703C08091B000A2
:101520008F7D8093B0000895809190008F7707C0E1
:10153000809190008F7D03C080919000877F809381
:10154000900008958091A0008F7707C08091A0003F
:101550008F7D03C08091A000877F8093A0000895B5
:10156000809120018F7707C0809120018F7D03C07B
:1015700080912001877F809320010895FC01848D54
:10158000DF01A80FB11DA35ABF4F2C91848D90E0AD
:1015900001968F739927848FA689B7892C93A08988
:1015A000B1898C91837080648C93938D848D981312
:1015B00006C00288F389E02D80818F7D80830895A5
:1015C000CF93DF93282F30E0F901EA50FE4F84914A
:1015D000F901E055FE4FD491F901E659FE4FC4914F
:1015E000CC2389F0811174DFEC2FF0E0EE0FFF1FA8
:1015F000E05BFE4FA591B491EC91ED2381E090E08A
:1016000021F480E002C080E090E0DF91CF91089566
:101610001F93CF93DF93282F30E0F901EA50FE4F5C
:101620008491F901E055FE4FD491F901E659FE4F3E
:10163000C491CC23B9F0162F81114ADFEC2FF0E0D2
:10164000EE0FFF1FEA5CFE4FA591B4919FB7F8948F
:10165000111104C08C91D095D82302C0EC91DE2BDF
:10166000DC939FBFDF91CF911F910895CF93DF93BC
:1016700090E0FC01E055FE4F2491FC01E659FE4F3D
:101680008491882361F190E0880F991FFC01E45E4A
:10169000FE4FC591D491FC01EA5CFE4FA591B49137
:1016A000611109C09FB7F8948881209582238883AF
:1016B000EC912E230BC0623061F49FB7F8948881BF
:1016C000322F309583238883EC912E2B2C939FBF50
:1016D00006C08FB7F894E8812E2B28838FBFDF9147
:1016E000CF9108951F920F920FB60F9211242F934E
:1016F0003F938F939F93AF93BF9380918A04909170
:101700008B04A0918C04B0918D043091890423E066
:10171000230F2D3720F40196A11DB11D05C026E829
:10172000230F0296A11DB11D2093890480938A0482
:1017300090938B04A0938C04B0938D0480918504C6
:1017400090918604A0918704B09188040196A11D10
:10175000B11D8093850490938604A0938704B09371
:101760008804BF91AF919F918F913F912F910F90DE
:101770000FBE0F901F901895CF93DF931F921F926B
:10178000CDB7DEB73FD59A8389833AE0C32ED12CFB
:10179000E12CF12C48EE842E43E0942EA12CB12CA8
:1017A00050E6452E5AEE552E612C712C63E0262E04
:1017B000312C04E610E08CE003DF61E0892B09F0B6
:1017C00060E08CE025DFE6E9F4E08191919124E08E
:1017D000EA3AF207D1F7E0EBF4E060E070E0CB0129
:1017E00021913191620F731F811D911D44E0E43CF2
:1017F000F407B1F7A70196010E94F51CDA01C901AF
:10180000AA27BB27BC01CD0126E0660F771F881FE2
:10181000991F2A95D1F7A50194010E94F51C211565
:10182000310571F0032E000C440B550BC301B201BE
:101830000E94171D293C310528F028EC30E002C039
:1018400020E030E040918E0450918F04809190040C
:1018500090919104840F951F4091920450919304AC
:10186000840F951FB1010E94E11C42E6469FC00112
:10187000479F900D11246AE070E00E94E11CFB017B
:1018800048E6429FC001439F900D1124B8010E9479
:10189000E11CAB019F01A2E1B0E00E943B1DDA0117
:1018A0009B01AC010E944A1D20E137E240E050E07C
:1018B0000E94F51C309395042093940465E070E039
:1018C000CE010196E7D777CFCF93DF93CDB7DEB7C1
:1018D000A3970FB6F894DEBF0FBECDBF93D49BA3E2
:1018E0008AA38AE0C82ED12CE12CF12C8BE068DE93
:1018F00061E0892B09F060E08BE08ADE8091AF0423
:101900008091C904209194043091950440E050E006
:1019100019A28E010F5D1F4FCA01B901A7019601DF
:101920000E94F51C605DF80162938F01211531055D
:101930004105510589F7309759F001900020E9F7EA
:101940003197AF01401B510BB8018CEF92E0D1DB16
:1019500042E050E065E272E08CEF92E0CADB6AE0C0
:1019600070E0CE01829696D7C1CF1F920F920FB62C
:101970000F9211240BB60F922F933F934F935F93C7
:101980006F937F938F939F93AF93BF93EF93FF9347
:1019900080919A0315DE20919E0330919F032F5F63
:1019A0003F4F30939F0320939E0390919D03953664
:1019B00018F096E090939903909199039430C9F1AF
:1019C00028F4923069F09330D1F05EC0953009F47C
:1019D00051C0963009F058C091E090936A0451C00C
:1019E000811152C020919E0330919F03243631050E
:1019F00008F442C010926A0410929D031CC081300A
:101A000009F042C0E0919D0391E09E0F90939D03E9
:101A1000F0E020919E0330919F03EE0FFF1FE756E9
:101A2000FC4F3087278310929F0310929E0394E00F
:101A300029C0811117C0E0919D0391E09E0F909302
:101A40009D03F0E020919E0330919F03EE0FFF1F56
:101A5000E756FC4F3087278310929F0310929E0316
:101A600093E010C020919E0330919F0325363105ED
:101A700058F007C0811108C010929F0310929E0376
:101A800003C095E09093990390919C039923B1F042
:101A900081110AC080919B03882321F080919B03D0
:101AA00061E009C02F9A0AC080919B03882329F026
:101AB00080919B0360E0ACDD01C02F98FF91EF9116
:101AC000BF91AF919F918F917F916F915F914F9156
:101AD0003F912F910F900BBE0F900FBE0F901F9054
:101AE0001895CF92DF92EF92FF92CF93DF93EC01A4
:101AF000072E000C880B990B0E94BF1B6B017C0109
:101B000020E030E040E45FE30E946F1C20E030E022
:101B100048E452E40E94241B0E948C1BC617D7077E
:101B2000D4F020E030E040EA5FE3C701B6010E9454
:101B30006F1C20E030E048E452E40E94241B20E0C7
:101B400030E040E85FE30E94BC1A0E948C1B21E059
:101B50006C177D070CF420E0822F90E0DF91CF918D
:101B6000FF90EF90DF90CF9008951F920F920FB6E5
:101B70000F9211248F938091C9048F5F8093C904C1
:101B80008F910F900FBE0F901F9018951F920F927C
:101B90000FB60F9211240BB60F922F934F935F93B2
:101BA0006F937F938F939F93EF93FF931092C9044A
:101BB000809126012091270190E0922B9093C804F8
:101BC0008093C7042091C6042A3010F01092C604F6
:101BD0004091C4045091C5042091C604E22FF0E066
:101BE0004817590728F4BC01641B750BAB0104C0EE
:101BF00040955095480F591FEE0FFF1FE055FB4FC2
:101C0000518340832F5F2093C6049093C504809333
:101C1000C404FF91EF919F918F917F916F915F919C
:101C20004F912F910F900BBE0F900FBE0F901F90F2
:101C300018951F920F920FB60F9211248F938091D7
:101C4000AF048F5F8093AF048F910F900FBE0F9002
:101C50001F9018951F920F920FB60F9211240BB67A
:101C60000F922F934F935F936F937F938F939F93D5
:101C7000EF93FF931092AF048091A6002091A700EC
:101C800090E0922B9093AE048093AD042091AC042D
:101C90002A3010F01092AC044091AA045091AB0489
:101CA0002091AC04E22FF0E04817590728F4BC015A
:101CB000641B750BAB0104C040955095480F591F2C
:101CC000EE0FFF1FEA56FB4F518340832F5F209397
:101CD000AC049093AB048093AA04FF91EF919F9181
:101CE0008F917F916F915F914F912F910F900BBECC
:101CF0000F900FBE0F901F9018950F931F93CF93C7
:101D0000ECEFF2E0A089B189C2E0CC93A485B5855F
:101D10001C92A685B78580E18C93108EA489B58925
:101D200086E08C93A289B3898C9180618C93A2897F
:101D3000B3898C9188608C93A289B3898C918068D7
:101D40008C930288F389E02D80818F7D808361E010
:101D50008DE08CDC61E08CE089DC61E08BE086DC8E
:101D600061E088E083DC60E081E380DC61E081E3C6
:101D70004FDC60E080E37ADC61E080E349DC00E096
:101D800010E022E04FEF50E068E272E08FE791E070
:101D900079D721E04FEF50E065E472E08CEB9BE0F7
:101DA00071D720E04FEF50E066E672E084E69CE0F9
:101DB00069D71092200195E09093210181E28093F0
:101DC00073008ABB1092A0009093A10080937200D0
:101DD00089BBF894C093B000C093B10084E68093AF
:101DE000B3001092B200C09370007894E9E9F3E078
:101DF000C0831482818160E039DC7894CF911F9197
:101E00000F918AC50F920FB6F8940F920BB60F92EE
:101E10000CB60F921F9211242F923F924F925F9215
:101E20006F927F928F929F92AF92BF92CF92DF92EA
:101E3000EF92FF920F931F932F933F934F935F93D4
:101E40006F937F938F939F93AF93BF93CF93DF93C2
:101E5000EF93FF93A091E902B091EA020DB60D92C3
:101E60000EB60D9213BE80919E028111F3C0809137
:101E7000A1029091A20201969093A2028093A102E6
:101E8000009799F52091A6023091A7024091A402F3
:101E90005091A5025093A7024093A6023093A50249
:101EA0002093A4022091A3022F5F2093A302E0912C
:101EB000A602F091A7022081211107C02FEF3FEF6A
:101EC00030939D0220939C0210C0E091A602F091F5
:101ED000A7020580F681E02D0680F781E02D2281A2
:101EE000338130939D0220939C0220919C0230917B
:101EF0009D028217930708F49CC020E019E0E0914E
:101F0000A602F091A7023081311107C08FEF9FEF39
:101F100090939D0280939C028DC0E091A602F09167
:101F2000A7020580F681E02D0680F781E02D428131
:101F300053818417950728F450939D0240939C0287
:101F400079C0AF014E5F5F4FA285B3856481758113
:101F5000E680F780EB01FD82EC82C681D7817B832E
:101F60006A8311966D917C9112974617570721F459
:101F70001296DC93CE931197138612863C913150C2
:101F80003C933C91A489B5891097F9F066857785D3
:101F9000E088F188EB01FD82EC82C089D1897B83E6
:101FA0006A831196ED90FC901297BF01645F7F4F9A
:101FB000E616F70621F41296DC93CE931197158A54
:101FC000148A3C9131503C933C91A6893091E702B0
:101FD0003A1710F4A093E7021A9FD0011124BD0113
:101FE0006D537D4F7B01DB011196CD91DC911297F2
:101FF000D583C4836C817D81778366836C817D8189
:10200000DB0113965C934E9312975D834C83F386AA
:10201000E286E70138813F5F3883A091E902B09101
:10202000EA02468956963C91431708F468CF21E0AE
:1020300066CF20E0E091E902F091EA02E689D9E07A
:10204000ED9FF0011124ED53FD4F8081823040F06F
:1020500021E006C080919A028F5F80939A0220E06F
:1020600080919B02811103C0222309F466C08091F4
:102070009E02882321F081E080939B025EC0109233
:102080009B02A091E902B091EA02E091E902F0918D
:10209000EA022D913C918789908D82179307A8F0D1
:1020A0008091E9029091EA028091E9029091EA021E
:1020B000279A2F9A2FEF67EA71E62150604070400F
:1020C000E1F700C000001F9AF5CF8091E70269E0B8
:1020D00001C08150482F50E0649F9001659F300DF2
:1020E0001124F901ED53FD4F9081992391F3A181C2
:1020F000B28112960D90BC91A02DB283A1832A5378
:102100003D4FA217B30731F412962D913C911397CE
:102110003283218399E0949FF001959FF00D112463
:10212000ED53FD4F0180F281E02D26813781309300
:10213000EA022093E9028093E702A091E902B091BC
:10214000EA02CD91CDBFDD91DEBFFF91EF91DF912E
:10215000CF91BF91AF919F918F917F916F915F913F
:102160004F913F912F911F910F91FF90EF90DF9032
:10217000CF90BF90AF909F908F907F906F905F9027
:102180004F903F902F901F900F900CBE0F900BBE62
:102190000F900FBE0F900895FC01DB010FB6F8946D
:1021A0000F924091A1025091A2022D913C91119762
:1021B0002F3F8FEF380701F1818192816091A30257
:1021C0007081761719F048175907C0F4481B590B4E
:1021D0004217530770F4241B350B2D933C938091C9
:1021E000A30280838091A1029091A20292838183B5
:1021F00003C01D921C9202C080E001C081E00F90DC
:102200000FBE08950FB6F8940F928091A10290919D
:10221000A2020F900FBE089580919E028F5F80935F
:102220009E0208950FB6F8940F92FC01928D0F90C4
:102230000FBE81E0911180E00895E4DD1895CF9301
:10224000DF93FC01A085B185828193812481358152
:10225000EC013D832C83C481D5819B838A831196B5
:102260008D919C911297E817F90721F41296DC934F
:10227000CE931197118610868C9181508C938C91FE
:10228000DF91CF910895CF93DF939C01FB01DC0197
:102290001196CD91DC911297D383C2838C819D815D
:1022A000958384838C819D81DC0113967C936E934E
:1022B00012977D836C8331872087F90180818F5F3E
:1022C0008083DF91CF9108950F931F93CF93DF9376
:1022D000DC011596ED91FC911697C681D7818E0190
:1022E000045F1F4FC801ABDF80919E02811113C0B4
:1022F0000A501109C801A3DF8E899091E70298174F
:1023000010F48093E702B9E08B9FC0011124B8015B
:102310008D539D4F03C0B8018AEB92E0B4DFE0918A
:10232000E902F091EA029E898689891720F481E00A
:1023300080939B0201C080E0DF91CF911F910F91AC
:102340000895EF92FF920F931F93CF93DF93EC01C9
:102350000FB6F8940F921E8D7C0181E1E80EF11CFE
:1023600001E0111654F48989882339F0C701ACDFE4
:10237000811100939B021150F4CF8FEF8E8F0F903D
:102380000FBE0FB6F8940F921D8D7E0188E0E80E07
:10239000F11C01E0111654F48885882339F0C70137
:1023A00093DF811100939B021150F4CF8FEF8D8F3B
:1023B0000F900FBEDF91CF911F910F91FF90EF9083
:1023C00008950F920FB6F8940F920BB60F920CB6B9
:1023D0000F921F9211242F923F924F925F926F9211
:1023E0007F928F929F92AF92BF92CF92DF92EF92A5
:1023F000FF920F931F932F933F934F935F936F938E
:102400007F938F939F93AF93BF93CF93DF93EF937C
:10241000FF93A091E902B091EA020DB60D920EB6BB
:102420000D9280919E02882321F081E080939B028F
:102430005EC010929B02A091E902B091EA02E09185
:10244000E902F091EA022D913C918789908D8217E3
:102450009307A8F08091E9029091EA028091E90245
:102460009091EA02279A2F9A2FEF87EA91E621505E
:1024700080409040E1F700C000001F9AF5CF8091A6
:10248000E70269E001C08150482F50E0649F90014D
:10249000659F300D1124F901ED53FD4F9081992373
:1024A00091F3A181B28112960D90BC91A02DB283BF
:1024B000A1832A533D4FA217B30731F412962D91F1
:1024C0003C9113973283218399E0949FF001959F6B
:1024D000F00D1124ED53FD4F0180F281E02D268196
:1024E00037813093EA022093E9028093E702A091BA
:1024F000E902B091EA02CD91CDBFDD91DEBFFF913F
:10250000EF91DF91CF91BF91AF919F918F917F918B
:102510006F915F914F913F912F911F910F91FF907C
:10252000EF90DF90CF90BF90AF909F908F907F9073
:102530006F905F904F903F902F901F900F900CBE28
:102540000F900BBE0F900FBE0F9008958F929F9229
:10255000AF92BF92CF92DF92EF92FF920F931F93B1
:10256000CF93DF930FB6F8940F9280919E02815023
:1025700080939E0280919E02882311F080E0EBC040
:102580008091EB028823D1F3C0E0D0E029E0F22E65
:10259000EE24E3948091BA02882339F1E091BF02DE
:1025A000F091C002C681D781CE010C9648DE8E0123
:1025B0000E5F1F4FC80143DE8E899091E702981786
:1025C00010F48093E702F89EC0011124B8018D53E6
:1025D0009D4F59DEE091E902F091EA029E898689D9
:1025E0009817C0F2E0929B02D5CFCD2B11F00E943C
:1025F0005E08E0909A02EE2009F4A6C089E0982EC9
:1026000088248394CC24CA94DC2C80919E0281116E
:1026100089C0C091A102D091A2022196D093A202BA
:10262000C093A1022097B9F48091A6029091A702CD
:102630002091A4023091A5023093A7022093A60214
:102640009093A5028093A4028091A3028F5F809350
:10265000A3020E945E0880919C0290919D02F12C41
:10266000C817D90708F44EC0E091A602F091A7025E
:102670008081811105C0D0929D02C0929C0242C00F
:10268000E091A602F091A7020580F681E02D068177
:102690001781D80112968D919C911397C817D9076D
:1026A00028F490939D0280939C022CC05801B2E0C4
:1026B000AB0EB11CC501C3DDF80184899589892B56
:1026C00019F0C8010C96BBDDD80156968C919091FB
:1026D000E702981710F48093E702989EC001112436
:1026E000B5018D539D4FCFDDE091E902F091EA02F3
:1026F000D80156969C918689981708F4B5CFFF2487
:10270000F394B2CFE091E902F091EA02E6899E9E4D
:10271000F0011124ED53FD4F8081823048F0FF24F9
:10272000F39406C080919A028F5F80939A02F12CF5
:1027300080919B02811101C0F11080929B02EA946A
:10274000E11063CF10929A0280919B02882309F4D2
:1027500015CF37DE81E00F900FBEDF91CF911F9133
:102760000F91FF90EF90DF90CF90BF90AF909F9030
:102770008F9008950F931F93CF93DF938C01FB01EC
:10278000808191818F3F2FEF920721F4E801AF8183
:10279000B8850EC0D801139612962D913C911397CF
:1027A000E901488159818417950710F0D901F4CFC8
:1027B00012968D919C91139793838283EC01FD83F4
:1027C000EC83B583A4831396FC93EE931297118741
:1027D0000087F80180818F5F8083DF91CF911F9107
:1027E0000F910895FF920F931F93CF93DF93EC0106
:1027F000F62E0091A1021091A2028091E90290911F
:10280000EA0202961CDDCF3F8FEFD80781F4FF204C
:1028100071F06091E9027091EA026E5F7F4F88EA81
:1028200092E0DF91CF911F910F91FF902CCDC00FBF
:10283000D11FE091E902F091EA02D383C283609153
:10284000E9027091EA02C017D10760F48091A402F6
:102850009091A5026E5F7F4FDF91CF911F910F91F5
:10286000FF9088CF8091A6029091A7026E5F7F4F64
:1028700081DF80919C0290919D02C817D90720F4B6
:10288000D0939D02C0939C02DF91CF911F910F9135
:10289000FF9008950F931F93CF93DF938C01EB016B
:1028A000BBDC4091A1025091A202F801208131814C
:1028B000C9018C0F9D1F4217530720F482179307FD
:1028C00040F403C08217930730F021E048175907FE
:1028D00018F020E001C021E0F801918380832223D9
:1028E00021F060E0841B950B7DDF30DE811101C09B
:1028F00068DDDF91CF911F910F910895FC01039640
:10290000928381832FEF3FEF3483238396838583E4
:1029100090878783108208950F931F93CF93DF933F
:1029200008E912E020E040EC50E068E172E08EE15E
:1029300091E0A8D1813009F0B2C00FB6F8940F929F
:1029400080919F029091A002892B09F04BC08DE8E5
:1029500092E0D4DF84E892E0D1DF8DE892E09093BA
:1029600082048093810484E892E0909380048093B1
:102970007F0481E590E0E2D5EC01009779F14F9674
:10298000998388838AE08B8F85E08C8F0FB6F894CB
:102990000F92488159818B8D6C8D9A01869F200DF5
:1029A000311D11243D832C831A8E5B834A8390E072
:1029B0000197689F9001699F300D1124CA01820F11
:1029C000931F9F838E838FEF8D8F8E8FCE010896FE
:1029D00095DFCE01419692DF0F900FBED093A002FB
:1029E000C0939F020F900FBE80919F029091A00212
:1029F000892B09F454C006E912E023E045E550E0D4
:102A00006DE172E080EF98E13DD1813009F047C07F
:102A1000F8942FEF3FEF30939D0220939C02809318
:102A2000E8021092A2021092A102A89590EC88E10F
:102A30000FB6F894A895809360000FBE9093600045
:102A4000A091E902B091EA02CD91CDBFDD91DEBF48
:102A5000FF91EF91DF91CF91BF91AF919F918F91B6
:102A60007F916F915F914F913F912F911F910F91A6
:102A7000FF90EF90DF90CF90BF90AF909F908F909E
:102A80007F906F905F904F903F902F901F900F908E
:102A90000CBE0F900BBE0F900FBE0F900895DF91EC
:102AA000CF911F910F910895AF92BF92CF92DF9275
:102AB000EF92FF920F931F93CF93DF9300D01F925B
:102AC0001F92CDB7DEB78C017B011D821C8280E096
:102AD000680198E0C90ED11C0FB6F8940F92F80166
:102AE000228D938D291708F069C0D28C448D411135
:102AF0003DC080819181892B09F050C0F801E480AC
:102B0000F580E114F10411F480E02CC0F70182A1FA
:102B1000815082A3268991A12917B1F38111F4CFA5
:102B20005701F2E0AF0EB11CC50189DBF70181A1AD
:102B3000868B482F50E024E030E0241B350B35878E
:102B400024879091E702981710F48093E70229E018
:102B5000249FC001259F900D1124B5018D539D4FD9
:102B600092DB81E0F8011582148219C050E0B701B0
:102B7000F801828193810E94B01EF801248D828128
:102B80009381820F911D93838283248135818217E3
:102B9000930720F0808191819383828380E0D39496
:102BA000F801D28E9189992319F0C80141968CDBE6
:102BB000811107DC0F900FBE81E054C02C813D8154
:102BC000232B19F40F900FBE4CC0811109C08091C6
:102BD000A30289838091A1029091A2029B838A83A0
:102BE0000F900FBE19DB0FB6F8940F92F801858D88
:102BF0008F3F09F4158EF801868D8F3F09F4168EEC
:102C00000F900FBEBE016C5F7F4FCE010196C4DAFC
:102C1000811124C00FB6F8940F92F801928D838D24
:102C20000F900FBE981316C0AC80BD806091E90272
:102C30007091EA02645F7F4FC6019CDD61E0C501CF
:102C4000D1DDC8017EDB82DC882311F081E044CF36
:102C5000B8DBFCCFC80175DB79DCF8CFC80171DBCC
:102C600075DC80E00F900F900F900F900F90DF9128
:102C7000CF911F910F91FF90EF90DF90CF90BF9079
:102C8000AF9008957F928F929F92AF92BF92CF9212
:102C9000DF92EF92FF920F931F93CF93DF93982EC3
:102CA000C92E762E872EEA01D22ECA0147D45C01A6
:102CB000892B09F441C188E290E040D47C0100975F
:102CC000D9F0DC015896BC92AE925797AE0165EAF6
:102CD00070E0C5010E94B91E2197D7015796ED916A
:102CE000FC915897EC0FFD1FB701675E7F4FA72D32
:102CF000B82DCD01089606C0C50111D41DC1A81775
:102D0000B90749F09D014D91EB014993BE01E901DD
:102D100028812111F4CFD70190961C922D2D2430BB
:102D200008F023E0E7012E8B29A31AA21B861A863E
:102D30001D8A1C8AF986E88684E090E0821B91094E
:102D40009D878C87FB8AEA8A1BA21CA21DA21EA259
:102D50001FA291E19083DF01119782E28C9311977A
:102D600023E32C9311979C921197CC9211971C926C
:102D700011971C92119720E82C9311971C92119790
:102D80001C9211971C92119722E02C93119723E02B
:102D90002C93119724E02C93119725E02C931197F5
:102DA00026E02C93119727E02C93119728E02C9381
:102DB000119729E02C93119720E12C9311979C9364
:102DC000119792E19C93119793E19C93119794E151
:102DD0009C93119795E19C93119796E19C93119781
:102DE00097E19C93119798E19C93119799E19C939B
:102DF000119790E29C93119791E29C9311978C9379
:102E0000119783E28C9311971C9211971C92119742
:102E100086E28C93119787E28C93119788E28C93CA
:102E2000119789E28C93119780E38C93119781E33A
:102E30008C93B997F983E8830115110519F0F8010E
:102E4000F182E0820FB6F8940F928091EB028F5FCF
:102E50008093EB028091E9029091EA02892B89F537
:102E6000F092EA02E092E9028091EB02813009F0EF
:102E70003AC083EC92E042DD8CEC92E03FDD85EDE0
:102E800092E03CDD8EED92E039DD85E794E036DDC1
:102E90008CE694E033DD8AEB92E030DD81EB92E06A
:102EA0002DDD88EA92E02ADD85E794E09093A70281
:102EB0008093A6028CE694E09093A5028093A402EE
:102EC00012C08091E80281110EC0E091E902F091F8
:102ED000EA029689D70156968C91891720F0F092D4
:102EE000EA02E092E90280917E048F5F80937E0483
:102EF000E7018E899091E702981710F48093E7021A
:102F0000D9E08D9FC0011124B7016E5F7F4F8D53B3
:102F10009D4FB9D90F900FBE8091E802882351F0E0
:102F2000E091E902F091EA029689F7018689981703
:102F300008F447DA81E001C08FEFDF91CF911F9154
:102F40000F91FF90EF90DF90CF90BF90AF909F9048
:102F50008F907F900895CF93DF9300D01F921F92A0
:102F6000CDB7DEB79C0180919F029091A00200979F
:102F700061F019827B836A833D832C832091E80270
:102F8000222329F020919E0202C080E004C0BE01ED
:102F90006F5F7F4F89DD0F900F900F900F900F9014
:102FA000DF91CF910895ECEFF2E01382128288EE68
:102FB00093E0A0E0B0E084839583A683B7838AE0A2
:102FC00092E09183808385EC90E09587848784EC00
:102FD00090E09787868780EC90E0918B808B81ECE6
:102FE00090E0938B828B82EC90E0958B848B86ECC7
:102FF00090E0978B868B118E128E138E148EE9E9DA
:10300000F3E083E0818313820895789484B582602D
:1030100084BD84B5816084BD85B5826085BD85B57C
:10302000816085BD80916E00816080936E001092FA
:103030008100809181008260809381008091810075
:103040008160809381008091800081608093800006
:103050008091B10084608093B1008091B000816064
:103060008093B00080919100826080939100809164
:1030700091008160809391008091900081608093A5
:1030800090008091A10082608093A1008091A100B6
:1030900081608093A1008091A00081608093A00056
:1030A00080912101826080932101809121018160C2
:1030B0008093210180912001816080932001809183
:1030C0007A00846080937A0080917A008260809395
:1030D0007A0080917A00816080937A0080917A00F2
:1030E000806880937A001092C1000E947D0E14DCEB
:1030F0000E947D0E0E94300AFDCFFC017383628323
:10310000918780874617570778F0421B530B8485B9
:10311000958548175907C0F4BF016E5F7F4F8091B6
:103120007F04909180040DC04217530718F4621772
:10313000730750F4BF016E5F7F4F809181049091BF
:10314000820418DB80E0089581E00895EF92FF92F9
:103150000F931F93CF93DF93E0918104F09182044A
:103160008081882351F10580F681E02D0081118155
:10317000C681D7817E0182E0E80EF11CC7015FD8CD
:10318000E989FA89CE0119958E85813029F78C85D8
:103190009D85800F911F0817190758F49B838A8318
:1031A000D987C887B7018091810490918204E2DABF
:1031B000D3CFB801CE01CFDECFCF80917F049091E5
:1031C00080049093820480938104F0938004E093C0
:1031D0007F04DF91CF911F910F91FF90EF900895A1
:1031E000CF93DF93CDB7DEB72A970FB6F894DEBF43
:1031F0000FBECDBFE0918104F0918204F080FF20EA
:1032000031F00580F681E02D0081118102C000E0DF
:1032100010E002D80E9402116C0180918304909109
:103220008404C816D90618F491DF81E001C080E05B
:10323000D0928404C092830481116EC0FF2071F18A
:10324000C016D10698F182D9E0918104F0918204F0
:103250000580F681E02DE680F780C70102960E9486
:103260001F11D7011E968C911E97813079F41C9600
:103270006D917C911D97600F711F9801A601C70188
:103280003CDF882319F0B801C70165DED7015196EC
:10329000ED91FC915297C7011995BFC0E0917F0451
:1032A000F09180048081BB24B3948111B12CE09013
:1032B0009F02F090A0020FB6F8940F92F701858D4F
:1032C0008F3F09F4158ED7015E968C915E978F3FE4
:1032D00011F45E961C920F900FBEF701828D811142
:1032E00014C06091E9027091EA02645F7F4FC701E8
:1032F00041960E944311B11004C0C8018C199D0968
:1033000002C08FEF9FEF6B2D6DDAC7011AD81ED95F
:10331000811183C056D881C019D97FC0811109C0DD
:103320008091A3028E838091A1029091A20298873E
:103330008F830F900FBE0E940C110FB6F8940F925E
:10334000D8015D968C915D978F3F11F45D961C922C
:10335000F801868D8F3F09F4168E0F900FBEBE01C7
:10336000675F7F4FCE0106960E94CC108111CCC0C2
:10337000C8010E941211882309F4C1C0E984FA84AB
:103380006091E9027091EA02645F7F4FC601F2D951
:1033900061E0C70127DAC8010E94A111D7D88823AC
:1033A00009F4AAC081E00FB6F8940F92F801F28CEC
:1033B000FF2009F499C0448D41113BC0FA94F801F3
:1033C000F28E808581114EC00F900FBED980D7FC40
:1033D00024C00C811D81D8011A968D919C911B9758
:1033E000892B21F0C80102960E941F110E94021130
:1033F0007C018091830490918404E816F90608F416
:10340000A5DEF0928404E09283048D2DDD0C990BEF
:10341000AA0BBB0B8A30910578F100919F021091A5
:10342000A0021A86198680E06801B1E1CB0ED11C9A
:10343000BACF50E086819781840F951F978386834A
:10344000248135818217930720F0808191819783B1
:103450008683D80116966D917C911797CE010196BF
:103460007FD4ACCFC80108960E946411882309F468
:10347000ABCF0E94E111A8CFFC018827EC57FF4F8A
:103480008F4FF1C2CA80DB80F801648575856C0DB1
:103490007D1D9601A701C80130DE882309F4BDCF48
:1034A000D8015196ED91FC915297C8011995F801F8
:1034B0008685813009F0B1CF648575856C0D7D1DE1
:1034C000C80149DDAACF6A817B81D8011D967C9312
:1034D0006E931C976E0D7F1D9701A701C8010DDE2D
:1034E0009CCFC8011CD099CF29853A85232B09F0A0
:1034F00015CF0F900FBE7ECE0E94E11153CFC801B1
:103500000E94A11123D84ECFC8010E94A1111ED83C
:10351000C8010E941211882309F444CF6BCECF93C7
:10352000DF93009741F0EC010E940C11CE018BD388
:10353000DF91CF910BC8DF91CF910895CF93DF93A7
:10354000EC010E940C11CE01E6D2EC010E94A61201
:10355000209769F4279A2F9A2FEF80E792E0215065
:1035600080409040E1F700C000001F9AF5CFCE01E7
:10357000DF91CF9108955058BB27AA270ED075C16F
:1035800066D130F06BD120F031F49F3F11F41EF47E
:103590005BC10EF4E095E7FB51C1E92F77D180F3D1
:1035A000BA17620773078407950718F071F49EF540
:1035B0008FC10EF4E0950B2EBA2FA02D0B01B9018F
:1035C00090010C01CA01A0011124FF27591B99F099
:1035D000593F50F4503E68F11A16F040A22F232FA5
:1035E000342F4427585FF3CF469537952795A795F5
:1035F000F0405395C9F77EF41F16BA0B620B730B9C
:10360000840BBAF09150A1F0FF0FBB1F661F771F0C
:10361000881FC2F70EC0BA0F621F731F841F48F4C1
:10362000879577956795B795F7959E3F08F0B3CF47
:103630009395880F08F09927EE0F97958795089531
:10364000D9D008F481E008950CD00FC107D140F023
:10365000FED030F021F45F3F19F0F0C0511139C1B4
:10366000F3C014D198F39923C9F35523B1F3951BF3
:10367000550BBB27AA2762177307840738F09F5F93
:103680005F4F220F331F441FAA1FA9F333D00E2E02
:103690003AF0E0E830D091505040E695001CCAF76F
:1036A00029D0FE2F27D0660F771F881FBB1F261734
:1036B00037074807AB07B0E809F0BB0B802DBF0107
:1036C000FF2793585F4F2AF09E3F510568F0B6C020
:1036D00000C15F3FECF3983EDCF3869577956795E4
:1036E000B795F7959F5FC9F7880F911D96958795B8
:1036F00097F90895E1E0660F771F881FBB1F6217D7
:1037000073078407BA0720F0621B730B840BBA0B94
:10371000EE1F88F7E095089504D06894B111D9C0E0
:103720000895BCD088F09F5790F0B92F9927B751D2
:10373000A0F0D1F0660F771F881F991F1AF0BA9575
:10374000C9F712C0B13081F0C3D0B1E00895C0C054
:10375000672F782F8827B85F39F0B93FCCF386956B
:1037600077956795B395D9F73EF4909580957095C8
:1037700061957F4F8F4F9F4F0895E89409C097FB45
:103780003EF490958095709561957F4F8F4F9F4F38
:103790009923A9F0F92F96E9BB279395F69587957C
:1037A00077956795B795F111F8CFFAF4BB0F11F43F
:1037B00060FF1BC06F5F7F4F8F4F9F4F16C08823E6
:1037C00011F096E911C0772321F09EE8872F762F1C
:1037D00005C0662371F096E8862F70E060E02AF05D
:1037E0009A95660F771F881FDAF7880F9695879549
:1037F00097F90895990F0008550FAA0BE0E8FEEF1E
:1038000016161706E807F907C0F012161306E407A4
:10381000F50798F0621B730B840B950B39F40A269D
:1038200061F0232B242B252B21F408950A2609F47B
:10383000A140A6958FEF811D811D089597F99F677F
:1038400080E870E060E008959FEF80EC0895002428
:103850000A941616170618060906089500240A94F5
:1038600012161306140605060895092E0394000C7B
:1038700011F4882352F0BB0F40F4BF2B11F460FF0A
:1038800004C06F5F7F4F8F4F9F4F089557FD905833
:10389000440F551F59F05F3F71F04795880F97FB14
:1038A000991F61F09F3F79F08795089512161306CE
:1038B0001406551FF2CF4695F1DF08C016161706FD
:1038C0001806991FF1CF8695710561050894089532
:1038D000E894BB2766277727CB0197F908950BD08B
:1038E000C4CFB5DF28F0BADF18F0952309F0A6CFD2
:1038F000ABCF1124EECFCADFA0F3959FD1F3950F84
:1039000050E0551F629FF001729FBB27F00DB11D63
:10391000639FAA27F00DB11DAA1F649F6627B00DF3
:10392000A11D661F829F2227B00DA11D621F739FDC
:10393000B00DA11D621F839FA00D611D221F749FEA
:103940003327A00D611D231F849F600D211D822F31
:10395000762F6A2F11249F5750408AF0E1F0882378
:103960004AF0EE0FFF1FBB1F661F771F881F915085
:103970005040A9F79E3F510570F060CFAACF5F3F3E
:10398000ECF3983EDCF3869577956795B795F795B8
:10399000E7959F5FC1F7FE2B880F911D9695879540
:1039A00097F90895DB018F939F9374D0BF91AF91E6
:1039B000A29F800D911DA39F900DB29F900D112489
:1039C0000895AA1BBB1B51E107C0AA1FBB1FA61766
:1039D000B70710F0A61BB70B881F991F5A95A9F7B8
:1039E00080959095BC01CD010895A1E21A2EAA1BE5
:1039F000BB1BFD010DC0AA1FBB1FEE1FFF1FA2179F
:103A0000B307E407F50720F0A21BB30BE40BF50B9B
:103A1000661F771F881F991F1A9469F76095709524
:103A2000809590959B01AC01BD01CF010895052EB5
:103A300097FB16F400940FD057FD05D0D6DF07FC96
:103A400002D046F408C050954095309521953F4FDF
:103A50004F4F5F4F089590958095709561957F4F7A
:103A60008F4F9F4F0895EE0FFF1F881F8BBF07904A
:103A7000F691E02D1994A29FB001B39FC001A39FBE
:103A8000700D811D1124911DB29F700D811D112497
:103A9000911D0895F0DFA59F900DB49F900DA49FF8
:103AA000800D911D112408950F93083090F0982FE8
:103AB000872F762F652F542F432F322F2227085020
:103AC000F4CF220F331F441F551F661F771F881F17
:103AD000991F0A95B2F70F91089597FB10F8169465
:103AE00000080F93083098F00850232F342F452FEB
:103AF000562F672F782F892F902DF4CF0594979507
:103B000087957795679557954795379527950A95A2
:103B1000AAF70F9108950F931F93CF93DF938230ED
:103B2000910510F482E090E0E091CC04F091CD0496
:103B300020E030E0A0E0B0E0309719F14081518101
:103B40000281138148175907C8F08417950769F453
:103B5000109731F012960C93129713961C9327C06E
:103B60000093CC041093CD0422C02115310519F027
:103B70004217530718F49A01BD01EF01DF01F80164
:103B8000DBCF21153105F9F0281B390B2430310525
:103B900080F48A819B816115710521F0FB0193837B
:103BA000828304C09093CD048093CC04FE013296AE
:103BB00044C0FE01E20FF31F81939193225031091B
:103BC000398328833AC02091CA043091CB04232B37
:103BD00041F420910202309103023093CB042093F0
:103BE000CA0420910002309101022115310541F4EF
:103BF0002DB73EB74091040250910502241B350BAE
:103C0000E091CA04F091CB04E217F307A0F42E1B55
:103C10003F0B2817390778F0AC014E5F5F4F241730
:103C2000350748F04E0F5F1F5093CB044093CA04F2
:103C30008193919302C0E0E0F0E0CF01DF91CF915A
:103C40001F910F910895CF93DF93009709F481C0DE
:103C5000FC01329713821282A091CC04B091CD0462
:103C6000109781F420813181820F931F2091CA0423
:103C70003091CB042817390751F5F093CB04E0932A
:103C8000CA0467C0ED0120E030E0CE17DF0740F442
:103C90004A815B819E0141155105F1F0EA01F5CFA2
:103CA000D383C28340815181840F951FC817D907E0
:103CB00059F488819981840F951F0296918380839E
:103CC0008A819B81938382832115310529F4F093A6
:103CD000CD04E093CC043DC0E901FB83EA83499124
:103CE0005991C40FD51FEC17FD0761F480819181B4
:103CF000840F951F0296E9019983888382819381BD
:103D00009B838A83E0E0F0E012968D919C9113975B
:103D1000009719F0FD01DC01F7CF8D919C9111976F
:103D20009D012E5F3F4F820F931F2091CA04309157
:103D3000CB042817390769F4309729F41092CD0481
:103D40001092CC0402C013821282B093CB04A093D1
:103D5000CA04DF91CF91089581E090E0F89410C0FB
:103D6000FB01DC0102C001900D9241505040D8F798
:103D70000895DC0101C06D9341505040E0F7089573
:043D8000F894FFCFE5
:103D84000000CE04800000000000B2087908F309A6
:103D9400FE08240A020A160A49444C4500546D726E
:103DA40020537663000D0A0053686F727420616EAD
:103DB400642068696768207072696F726974792019
:103DC4007461736B004D656469756D207461736B08
:103DD4002077697468206D656469756D20707269F7
:103DE4006F72697479004C6F6E6720616E64206C29
:103DF4006F77207072696F72697479207461736B64
:023E04000000BC
:020000023000CC
:10E000000D9489F10D94B2F10D94B2F10D94B2F129
:10E010000D94B2F10D94B2F10D94B2F10D94B2F1F0
:10E020000D94B2F10D94B2F10D94B2F10D94B2F1E0
:10E030000D94B2F10D94B2F10D94B2F10D94B2F1D0
:10E040000D94B2F10D94B2F10D94B2F10D94B2F1C0
:10E050000D94B2F10D94B2F10D94B2F10D94B2F1B0
:10E060000D94B2F10D94B2F10D94B2F10D94B2F1A0
:10E070000D94B2F10D94B2F10D94B2F10D94B2F190
:10E080000D94B2F10D94B2F10D94B2F10D94B2F180
:10E090000D94B2F10D94B2F10D94B2F10D94B2F170
:10E0A0000D94B2F10D94B2F10D94B2F10D94B2F160
:10E0B0000D94B2F10D94B2F10D94B2F10D94B2F150
:10E0C0000D94B2F10D94B2F10D94B2F10D94B2F140
:10E0D0000D94B2F10D94B2F10D94B2F10D94B2F130
:10E0E0000D94B2F141546D656761323536300041AF
:10E0F000726475696E6F206578706C6F72657220DE
:10E1000073746B3530305632206279204D4C530099
:10E11000426F6F746C6F616465723E004875683F52
:10E1200000436F6D70696C6564206F6E203D200048
:10E130004350552054797065202020203D20005FF9
:10E140005F4156525F415243485F5F3D2000415658
:10E1500052204C696243205665723D20004743437C
:10E160002056657273696F6E203D20004350552024
:10E1700049442020202020203D20004C6F7720663D
:10E18000757365202020203D20004869676820665F
:10E190007573652020203D200045787420667573D6
:10E1A00065202020203D20004C6F636B2066757336
:10E1B000652020203D20004D617220203720323024
:10E1C000313300312E362E3800342E332E350056A2
:10E1D00023202020414444522020206F7020636F70
:10E1E00064652020202020696E73747275637469E1
:10E1F0006F6E2061646472202020496E74657272B3
:10E20000757074006E6F20766563746F7200726A49
:10E210006D702020006A6D70200057686174207056
:10E220006F72743A00506F7274206E6F7420737541
:10E2300070706F72746564004D7573742062652030
:10E2400061206C6574746572002000577269747483
:10E25000696E672045450052656164696E672045B7
:10E26000450045452065727220636E743D00504F35
:10E27000525400303D5A65726F2061646472003FF1
:10E280003D43505520737461747300403D454550C3
:10E29000524F4D207465737400423D426C696E6B41
:10E2A000204C454400453D44756D70204545505215
:10E2B0004F4D00463D44756D7020464C415348001B
:10E2C000483D48656C70004C3D4C69737420492F83
:10E2D0004F20506F72747300513D51756974005234
:10E2E0003D44756D702052414D00563D73686F7707
:10E2F00020696E7465727275707420566563746FF0
:10E30000727300593D506F727420626C696E6B00BD
:10E310002A0011241FBECFEFD1E2DEBFCDBF01E046
:10E320000CBF12E0A0E0B2E0EEE1FDEF03E00BBFB6
:10E3300002C007900D92A030B107D9F712E0A0E01B
:10E34000B2E001C01D92AE30B107E1F70F9460F367
:10E350000D948DFE01E20EBF0FEF0DBF11241FBE05
:10E360000D9460F30D9400F020E030E040ED57E0B4
:10E3700005C0FA013197F1F72F5F3F4F2817390792
:10E38000C0F308959C01260F311DC901A0E0B0E043
:10E390002F5F3F4FABBFFC018791882361F08093D3
:10E3A000C6008091C00086FFFCCF8091C0008064D1
:10E3B0008093C000EACF08958DE08093C6008091DD
:10E3C000C00086FFFCCF8091C00080648093C000B5
:10E3D0008AE08093C6008091C00086FFFCCF8091C8
:10E3E000C00080648093C00008950F94C2F10F9420
:10E3F000DCF10895FC019081992359F09093C600B7
:10E400008091C00086FFFCCF8091C0008064809323
:10E41000C0003196992379F70895282F982F929567
:10E420009F70892F805D8A3308F0895F8093C600D2
:10E430008091C00086FFFCCF8091C00080648093F3
:10E44000C000822F8F70982F905D9A3308F0995FEB
:10E450009093C6008091C00086FFFCCF8091C000E1
:10E4600080648093C00008959C01FB01853691056E
:10E470001CF46330710594F0C90164E670E00F94F8
:10E480002EFE605D7F4F6093C6008091C00086FFC6
:10E49000FCCF8091C00080648093C0002B30310598
:10E4A00014F43297B4F0C90164E670E00F942EFEC4
:10E4B0006AE070E00F942EFE605D7F4F6093C600AF
:10E4C0008091C00086FFFCCF8091C0008064809363
:10E4D000C000C9016AE070E00F942EFEC0968093E0
:10E4E000C6008091C00086FFFCCF8091C000806490
:10E4F0008093C00008951F93182F8EE692EE60E07F
:10E500000F94C2F11093C6008091C00086FFFCCF2B
:10E510008091C00080648093C0000F94DCF11F9153
:10E5200008952F923F924F925F926F927F928F92B7
:10E530009F92AF92BF92CF92DF92EF92FF920F9392
:10E540001F93DF93CF93CDB7DEB762970FB6F894E2
:10E55000DEBF0FBECDBF382E622ECA01DB015C01CB
:10E560006D01772420E2222E2E010894411C511CBB
:10E570008BC081E0A81680E0B80681E0C80680E084
:10E58000D80628F0C601AA27BB270F940DF2BB2797
:10E59000AD2D9C2D8B2D0F940DF28A2D0F940DF225
:10E5A0002092C6008091C00086FFFCCF8091C00001
:10E5B00080648093C0009DE29093C6008091C0006B
:10E5C00086FFFCCF8091C00080648093C0002092C1
:10E5D000C6008091C00086FFFCCF8091C00080649F
:10E5E0008093C00019828601750188249924A1E0D6
:10E5F0003A1651F03A1620F0B2E03B1661F409C029
:10E600000BBFF701779007C0C7010F9477FE782EF4
:10E6100002C0F7017080872D0F940DF22092C60082
:10E620008091C00086FFFCCF8091C0008064809301
:10E63000C000872D8052F401EF70F0708F3520F408
:10E64000E40DF51D708204C0E40DF51D8EE280839B
:10E650000894E11CF11C011D111D0894811C911CE2
:10E6600090E18916910409F0C2CF80E190E0A0E02A
:10E67000B0E0A80EB91ECA1EDB1E198AC2010F9493
:10E68000FAF10F94DCF16A94662009F072CF629679
:10E690000FB6F894DEBF0FBECDBFCF91DF911F91B3
:10E6A0000F91FF90EF90DF90CF90BF90AF909F9031
:10E6B0008F907F906F905F904F903F902F90089534
:10E6C0002F923F924F925F926F927F928F929F9282
:10E6D000AF92BF92CF92DF92EF92FF920F931F9370
:10E6E000DF93CF93CDB7DEB7CD53D1400FB6F894BB
:10E6F000DEBF0FBECDBF01E20EBF0FEF0DBF94B75F
:10E70000F894A89514BE80916000886180936000A1
:10E7100010926000789493FF05C0E0910002F091A0
:10E7200001021995279A2F9A8091C00082608093E8
:10E73000C00080E18093C40088E18093C1000000A4
:10E74000EE24FF24870144E0A42EB12CCC24DD2448
:10E7500024C0C5010197F1F70894E11CF11C011DCB
:10E76000111D21E2E2162EE4F20620E0020720E06D
:10E77000120718F031E0C32ED12CC801B70127ECE5
:10E780003BE140E050E00F9441FE611571058105C9
:10E79000910519F485B1805885B98091C00087FD35
:10E7A00003C0C114D104A9F2A6014F5F5F4FC25E3E
:10E7B000DE4F59834883CE51D140C25EDE4F8881FF
:10E7C0009981CE51D140019711F00D9410FEC05D9A
:10E7D000DE4F19821882C053D14060E0C15DDE4F28
:10E7E0001882CF52D14088249924C35DDE4F19820C
:10E7F0001882CD52D140C05EDE4F188219821A8233
:10E800001B82C052D140CE5CDE4F188219821A8220
:10E810001B82C253D140EE24FF2487010BBFF701B6
:10E8200007911691C45CDE4F19830883CC53D14005
:10E830000D940BFEC25EDE4F28813981CE51D1404E
:10E840002130310509F52091C600C25EDE4F1982E4
:10E850001882CE51D14022C02F5F3F4F4F4F5F4FA4
:10E86000213082E138078AE7480780E0580780F0C6
:10E87000C45CDE4FE881F981CC53D140EF5FFF4F9C
:10E8800019F0EE27FF27099420E030E040E050E047
:10E890008091C00087FFE0CF2091C600C35DDE4FAE
:10E8A00048815981CD52D1404F5F5F4FC35DDE4FEC
:10E8B00059834883CD52D140213209F063C64A3092
:10E8C000510508F05FC60894811C911C53E0851621
:10E8D000910409F059C600E010E018C081E280936D
:10E8E000C6008091C00086FFFCCF8091C00080648C
:10E8F0008093C0002F5F3F4F2931310579F70F9486
:10E90000DCF10F5F1F4F0530110519F020E030E0FA
:10E91000E5CF10920A0210920B0210920C02109294
:10E920000D02109206021092070210920802109235
:10E930000902109202021092030210920402109235
:10E9400005028FEE90EE60E00F94F5F180E191EE1C
:10E9500060E00F94C2F18091C00087FFFCCF9091DE
:10E96000C600903608F09F759032B8F09093C600BC
:10E970008091C00086FFFCCF8091C00080648093AE
:10E98000C000A0E2A093C6008091C00086FFFCCF2B
:10E990008091C00080648093C000983409F4D7C18E
:10E9A0009934B8F4923409F459C1933458F490333B
:10E9B00019F1903308F4E3C59F33A1F1903409F0C5
:10E9C000DEC5BDC0953409F470C1963409F0D7C5D1
:10E9D00098C1923509F42BC2933538F49C3409F46C
:10E9E000F5C1913509F0CBC518C2963509F445C279
:10E9F000993509F0C4C567C483E792EE62E00F94CD
:10EA0000F5F110920602109207021092080210927D
:10EA1000090210920A0210920B0210920C0210923C
:10EA20000D0213C18FE792EE62E00F94F5F18FEEC5
:10EA300090EE60E00F94F5F181E291EE60E00F94CA
:10EA4000C2F187EB91EE60E00F94F5F180E391EE77
:10EA500060E00F94C2F184EE90EE60E00F94F5F167
:10EA60008FE391EE60E00F94C2F186E090E061E008
:10EA700070E00F9434F20F94DCF18DE591EE60E0DC
:10EA80000F94C2F189EC91EE60E00F94F5F18EE401
:10EA900091EE60E00F94C2F183EC91EE60E00F9490
:10EAA000F5F18CE691EE60E00F94C2F18EE10F94E7
:10EAB0000DF288E90F940DF281E00F940DF20F949E
:10EAC000DCF18BE791EE60E00F94C2F119E0E0E039
:10EAD000F0E010935700E4918E2F0F940DF20F94F5
:10EAE000DCF18AE891EE60E00F94C2F1E3E0F0E03F
:10EAF00010935700E4918E2F0F940DF20F94DCF1D8
:10EB000089E991EE60E00F94C2F1E2E0F0E0109349
:10EB10005700E4918E2F0F940DF20F94DCF188EAE8
:10EB200091EE60E00F94C2F1E1E0F0E01093570045
:10EB30001491812F0F940DF20F94DCF107CF8BE825
:10EB400092EE62E00F94F5F18BE492EE60E00F94A8
:10EB5000F5F10F94DCF100E010E019C0C8016F2D51
:10EB60000F947FFEFF2031F489E492EE60E00F9471
:10EB7000C2F10BC0F092C6008091C00086FFFCCFAE
:10EB80008091C00080648093C0000F5F1F4FC80158
:10EB900081519F41A0E0B0E0ABBFFC01F790BAE229
:10EBA000FB1621F0E2E000301E07C1F60F94DCF105
:10EBB0000F94DCF187E592EE60E00F94F5F10F948D
:10EBC000DCF1CC24DD2400E010E01EC0C8010F946D
:10EBD00077FEF82E882331F489E492EE60E00F94FA
:10EBE000C2F10BC08093C6008091C00086FFFCCFAD
:10EBF0008091C00080648093C000FE1419F00894D6
:10EC0000C11CD11C0F5F1F4FC80181519F41A0E063
:10EC1000B0E0ABBFFC01E790FAE2EF1621F022E092
:10EC20000030120799F60F94DCF10F94DCF182E6C4
:10EC300092EE60E00F94C2F1C60161E070E00F94C3
:10EC400034F20F94DCF10F94DCF110920202109276
:10EC50000302109204021092050278CE89E992EE26
:10EC600062E00F94F5F1279A2F9A16C02F9880E052
:10EC700090E0E0EDF7E03197F1F7019684369105E9
:10EC8000C1F72F9A80E090E0E0EDF7E03197F1F7DF
:10EC9000019684369105C1F78091C00087FFE6CFC9
:10ECA0008091C00087FFFCCF64C485EA92EE62E0E9
:10ECB0000F94F5F140910202509103026091040219
:10ECC0007091050281E020E10F9491F2809102029F
:10ECD00090910302A0910402B091050280509F4FD1
:10ECE000AF4FBF4F8093020290930302A0930402A0
:10ECF000B093050280509041A040B04008F426CE69
:10ED0000A4CF83EB92EE62E00F94F5F140910602FE
:10ED100050910702609108027091090280E020E1A1
:10ED20000F9491F28091060290910702A09108023F
:10ED3000B091090280509F4FAF4FBF4F80930602A2
:10ED400090930702A0930802B0930902FFCD80ECD4
:10ED500092EE62E00F94F5F183E792EE60E00F949B
:10ED6000F5F18FE792EE60E00F94F5F18BE892EE0B
:10ED700060E00F94F5F189E992EE60E00F94F5F10F
:10ED800085EA92EE60E00F94F5F183EB92EE60E09D
:10ED90000F94F5F180EC92EE60E00F94F5F187ECC2
:10EDA00092EE60E00F94F5F188ED92EE60E00F9442
:10EDB000F5F18FED92EE60E00F94F5F18AEE92EEB0
:10EDC00060E00F94F5F183E093EEBDCD87EC92EE19
:10EDD00062E00F94F5F181E40F947BF282E40F94EA
:10EDE0007BF283E40F947BF284E40F947BF285E45E
:10EDF0000F947BF286E40F947BF287E40F947BF20E
:10EE000088E40F947BF28AE40F947BF28BE40F94F6
:10EE10007BF28CE40F947BF299CD88ED92EE62E068
:10EE20000F94F5F1772473948824992409C48FED05
:10EE300092EE62E00F94F5F140910A0250910B02BC
:10EE400060910C0270910D0282E020E10F9491F22A
:10EE500080910A0290910B02A0910C02B0910D02D8
:10EE600080509F4FAF4FBF4F80930A0290930B0289
:10EE7000A0930C02B0930D0269CD8AEE92EE62E08F
:10EE80000F94F5F184EE90EE60E00F94F5F18FECC5
:10EE900091EE60E00F94F5F1662477244301CC5D98
:10EEA000DE4F19821882C452D140D401C301B695F5
:10EEB000A79597958795CA5DDE4F88839983AA8326
:10EEC000BB83C652D140CC5DDE4FA881B981C4520C
:10EED000D1401196CC5DDE4FB983A883C452D14096
:10EEE000CD0162E070E00F9434F2B0E2B093C6005E
:10EEF0008091C00086FFFCCF8091C0008064809329
:10EF0000C000EDE2E093C6008091C00086FFFCCF18
:10EF10008091C00080648093C000F0E2F093C6004E
:10EF20008091C00086FFFCCF8091C00080648093F8
:10EF3000C000CA5DDE4FE880F9800A811B81C6529D
:10EF4000D140BB27A12F902F8F2D0F940DF2CA5DBA
:10EF5000DE4F8881C652D1400F940DF2B0E2FB2EF5
:10EF6000F092C6008091C00086FFFCCF8091C00067
:10EF700080648093C0000DE30093C6008091C000C0
:10EF800086FFFCCF8091C00080648093C00010E2B7
:10EF90001093C6008091C00086FFFCCF8091C00016
:10EFA00080648093C0008BBEF3012791C65DDE4F65
:10EFB0002883CA52D140A22EBB24CC24DD2408943D
:10EFC000611C711C811C911C8BBEF3018791282E42
:10EFD0003324442455240894611C711C811C911C09
:10EFE0008BBEF3013791C55DDE4F3883CB52D140E4
:10EFF0000894611C711C811C911C8BBEF30147910C
:10F00000C45DDE4F4883CC52D140ADEFEA2EAFEF66
:10F01000FA2EAFEF0A2FAFEF1A2F6E0C7F1C801E57
:10F02000911E142D032DF22CEE24EA0CFB1C0C1D5A
:10F030001D1D0F940DF220E22093C6008091C000A8
:10F0400086FFFCCF8091C00080648093C000C65DC5
:10F05000DE4F8881CA52D1400F940DF230E23093D6
:10F06000C6008091C00086FFFCCF8091C000806404
:10F070008093C000C45DDE4F8881CC52D1400F9494
:10F080000DF240E24093C6008091C00086FFFCCFA5
:10F090008091C00080648093C000C55DDE4F888190
:10F0A000CB52D1400F940DF250E25093C6008091A4
:10F0B000C00086FFFCCF8091C00080648093C000B8
:10F0C0008FEFE8168FEFF80680E0080780E018075A
:10F0D00031F484E092EE60E00F94C2F1DFC0D80119
:10F0E000C7018070907CA070B0708050904CA040A0
:10F0F000B040D1F52FEF3FE340E050E0E222F322B1
:10F1000004231523CA5DDE4FA880B980CA80DB8046
:10F11000C652D140AE0CBF1CC01ED11EAA0CBB1CD7
:10F12000CC1CDD1C8EE092EE60E00F94C2F1BB2798
:10F13000A12F902F8F2D0F940DF28E2D0F940DF285
:10F1400030E23093C6008091C00086FFFCCF8091F2
:10F15000C00080648093C0004EE34093C60080915D
:10F16000C00086FFFCCF87C08EE09EEFA0E0B0E03D
:10F17000E822F9220A231B239CE0E91694E9F90608
:10F1800090E0090790E0190709F088C0C45DDE4FE0
:10F19000A881CC52D140EA2EFF2400E010E0102FCD
:10F1A0000F2DFE2CEE24C55DDE4FB881CB52D14031
:10F1B000EB0EF11C011D111DD601C501817090706F
:10F1C000A070B070DC0199278827E80EF91E0A1F8D
:10F1D0001B1F20EF30E040E050E0A222B322C42207
:10F1E000D52241E1AA0CBB1CCC1CDD1C4A95D1F7F1
:10F1F000EA0CFB1C0C1D1D1D81E090E0A0E0B0E0BE
:10F20000282239224A225B2235E1220C331C441C7D
:10F21000551C3A95D1F7E20CF31C041D151D57013E
:10F220006801AA0CBB1CCC1CDD1C85E192EE60E0E1
:10F230000F94C2F1C801AA27BB270F940DF2BB2778
:10F24000A12F902F8F2D0F940DF28E2D0F940DF274
:10F2500090E29093C6008091C00086FFFCCF809121
:10F26000C00080648093C000AEE3A093C60080918C
:10F27000C00086FFFCCF8091C00080648093C000F6
:10F28000C601AA27BB270F940DF2BB27AD2D9C2DDD
:10F290008B2D0F940DF28A2D0F940DF20F94DCF14B
:10F2A000CC5DDE4FE881F981C452D140F99709F471
:10F2B0004DCBF4E0EF2EF12C012D112D6E0C7F1CA7
:10F2C000801E911EF2CD83E093EE62E00F94F5F183
:10F2D0008AE192EE60E00F94C2F18091C00087FF56
:10F2E000FCCF1091C6001F751093C6008091C0001E
:10F2F00086FFFCCF8091C00080648093C0000F9493
:10F30000DCF1812F81548A3108F036C1163409F4BA
:10F3100095C0173490F4133409F44EC0143430F40B
:10F320001134F1F0123409F01DC130C0143409F465
:10F3300059C0153409F016C16BC01A3409F4C4C0A1
:10F340001B3438F4173409F48FC0183409F00AC19B
:10F35000A1C01B3409F4D2C01C3409F003C1E8C0B9
:10F360008FEF81B90DC082B1809582B980E090E0C5
:10F37000E0EDF7E03197F1F70196883C9105C1F790
:10F380008091C00087FFEFCF12B8EFC08FEF84B934
:10F390000DC085B1809585B980E090E0E0EDF7E0A3
:10F3A0003197F1F70196883C9105C1F78091C00033
:10F3B00087FFEFCF15B8D9C08FEF87B90DC088B1DF
:10F3C000809588B980E090E0E0EDF7E03197F1F7C3
:10F3D0000196883C9105C1F78091C00087FFEFCF6F
:10F3E00018B8C3C08FEF8AB90DC08BB180958BB9A7
:10F3F00080E090E0E0EDF7E03197F1F70196883C8E
:10F400009105C1F78091C00087FFEFCF1BB8ADC059
:10F410008FEF8DB90DC08EB180958EB980E090E0F0
:10F42000E0EDF7E03197F1F70196883C9105C1F7DF
:10F430008091C00087FFEFCF1EB897C08FEF80BBD1
:10F440000DC081B3809581BB80E090E0E0EDF7E0F6
:10F450003197F1F70196883C9105C1F78091C00082
:10F4600087FFEFCF11BA81C08FEF83BB0DC084B38C
:10F47000809584BB80E090E0E0EDF7E03197F1F714
:10F480000196883C9105C1F78091C00087FFEFCFBE
:10F4900014BA6BC08FEF809301010FC080910201FD
:10F4A00080958093020180E090E0E0EDF7E03197F5
:10F4B000F1F70196883C9105C1F78091C00087FF64
:10F4C000EDCF1092020151C08FEF809304010FC065
:10F4D0008091050180958093050180E090E0E0ED4A
:10F4E000F7E03197F1F70196883C9105C1F78091DB
:10F4F000C00087FFEDCF1092050137C08FEF8093DA
:10F5000007010FC08091080180958093080180E079
:10F5100090E0E0EDF7E03197F1F70196883C910536
:10F52000C1F78091C00087FFEDCF109208011DC088
:10F530008FEF80930A010FC080910B01809580931B
:10F540000B0180E090E0E0EDF7E03197F1F70196F4
:10F55000883C9105C1F78091C00087FFEDCF1092E4
:10F560000B0103C085E292EEEEC98091C00087FFD7
:10F57000FCCF8091C600EAC988E392EEE4C98CE131
:10F5800091EEE1C988249924933011F1943028F444
:10F59000913089F09230B8F408C0953061F195301F
:10F5A000F0F0963009F048C043C02B3109F042C951
:10F5B00091E06BE13FC96227C15DDE4F2883CF52E6
:10F5C000D14092E037C9B22FA0E0622793E032C960
:10F5D000822F90E0A82BB92B622794E02BC92E3004
:10F5E00009F039C3622795E0C05DDE4F19821882A9
:10F5F000C053D1401FC9E1E0F0E0EC0FFD1FC05D3A
:10F60000DE4F08811981C053D140E00FF11F2083E4
:10F610000F5F1F4FC05DDE4F19830883C053D14079
:10F6200062270A171B0709F005C9D80196E002C92D
:10F63000261709F010C303C0973009F0FBC87724E0
:10F640009981933109F412C19431C8F4963009F4C8
:10F65000D8C0973050F4923009F406C1933009F4C1
:10F660006DC0913009F059C253C0913109F477C08F
:10F67000923108F0BBC0903109F04FC2F5C098310B
:10F6800009F487C0993150F4953109F4EFC09531F0
:10F6900008F4C6C1963109F040C2C2C19A3109F4DA
:10F6A0006CC09A3108F491C09B3109F45BC09D3164
:10F6B00009F033C29D81903359F48F81882311F46E
:10F6C0009EE11CC0813011F091E018C098E916C08D
:10F6D000892F807591F0903539F4E0E0F0E089E011
:10F6E0008093570094910AC0983539F4E3E0F0E034
:10F6F00089E080935700949101C090E01A821B82A8
:10F700008D818C831D829E831F8227E030E009C299
:10F710001A8288E08B8381E48C8386E58D8382E581
:10F720008E8389E48F8383E5888780E589878FE5E9
:10F730008A8782E38B872BE030E0F3C18A818139AD
:10F7400041F0823941F0803911F48FE005C080E04A
:10F7500003C082E001C08AE01A828B8344C0772410
:10F76000739482C08D81882311F48EE12CC0813086
:10F7700011F081E028C088E926C01A82E1E0F0E0BB
:10F7800089E08093570084918B831C8224E030E0D1
:10F79000C8C18B81803589F48C81883039F4E2E0EE
:10F7A000F0E089E08093570084910DC0E0E0F0E044
:10F7B00089E080935700849106C0E3E0F0E089E09F
:10F7C0008093570084911A82DFCF8D81836C99E0FA
:10F7D000E1E0F0E0082E90935700E89507B600FCB2
:10F7E000FDCF1A821B8223E030E09BC180EC8A832C
:10F7F000CE5CDE4F188219821A821B82C253D1401E
:10F800008EC18A8190E0A0E0B0E0582F44273327D2
:10F8100022278B8190E0A0E0B0E0DC0199278827C7
:10F82000282B392B4A2B5B2B8D8190E0A0E0B0E098
:10F83000282B392B4A2B5B2B8C8190E0A0E0B0E089
:10F84000BA2FA92F982F8827282B392B4A2B5B2BCF
:10F85000220F331F441F551FC05EDE4F288339839C
:10F860004A835B83C052D1401A8259C13A81C95C34
:10F87000DE4F3883C753D140CA5CDE4F1882C6536F
:10F88000D1408B81C82EDD24CA5CDE4F488159816E
:10F89000C653D140C42AD52A933109F082C0CE5C28
:10F8A000DE4F88819981AA81BB81C253D1408050AB
:10F8B000904CA340B04030F583E0CE5CDE4FE88052
:10F8C000F9800A811B81C253D140F70100935B008C
:10F8D00080935700E89507B600FCFDCFCE5CDE4F65
:10F8E000088119812A813B81C253D14000501F4FAA
:10F8F0002F4F3F4FCE5CDE4F088319832A833B8313
:10F90000C253D140C05EDE4F488159816A817B81FC
:10F91000C052D140DE011B9631E08C9111962C91A2
:10F9200011971296C75CDE4F2883C953D140C85C3B
:10F93000DE4F1882C853D14090E0C85CDE4FE881AA
:10F94000F981C853D1408E2B9F2B0C01FA01609393
:10F950005B0030935700E89511244E5F5F4F6F4F67
:10F960007F4F0EEFE02E0FEFF02ECE0CDF1CC114F8
:10F97000D10499F685E0C05EDE4F088119812A81A5
:10F980003B81C052D140F80120935B008093570027
:10F99000E89507B600FCFDCF81E180935700E8951C
:10F9A00035C0C05EDE4F88819981AA81BB81C0527B
:10F9B000D140B695A795979587957C018601ABE0D8
:10F9C000AA2EB12CAC0EBD1E0BC0D5016D915D01F0
:10F9D000C7010F947FFE0894E11CF11C01501040F8
:10F9E0000115110591F7A60160E070E0440F551F65
:10F9F000661F771FC05EDE4FE880F9800A811B8199
:10FA0000C052D1404E0D5F1D601F711F1A82C05E33
:10FA1000DE4F488359836A837B83C052D1407FC0C5
:10FA2000FA80C55CDE4FF882CB53D140C65CDE4F16
:10FA30001882CA53D1408B81C82EDD24C65CDE4FAC
:10FA400008811981CA53D140C02AD12A1A828981DA
:10FA5000BE016D5F7F4F843121F59601C05EDE4FA0
:10FA6000E880F9800A811B81C052D1400BBFF701A9
:10FA700087919691DB018C9311969C936E5F7F4FDB
:10FA8000D801C7010296A11DB11DC05EDE4F88835B
:10FA90009983AA83BB83C052D14022503040F1F6F3
:10FAA00036C0C05EDE4F288139814A815B81C052F9
:10FAB000D1400894C108D108760100E010E0089414
:10FAC000C11CD11C0894E11CF11C011D111DE20E8A
:10FAD000F31E041F151F21BDBB27A52F942F832FB5
:10FAE00082BD2F5F3F4F4F4F5F4FF89A80B5DB01CC
:10FAF0008D93BD012E153F054007510761F7C05E8C
:10FB0000DE4F288339834A835B83C052D1409601FC
:10FB10002D5F3F4FFB01108204C080EC8A8322E0FE
:10FB200030E08BE18093C6008091C00086FFFCCF5F
:10FB30008091C00080648093C000C15DDE4FF88179
:10FB4000CF52D140F093C6008091C00086FFFCCF19
:10FB50008091C00080648093C000432F3093C60022
:10FB60008091C00086FFFCCF8091C00080648093AC
:10FB7000C000922F2093C6008091C00086FFFCCF6A
:10FB80008091C00080648093C0008EE08093C600A6
:10FB90008091C00086FFFCCF8091C000806480937C
:10FBA000C00065E1C15DDE4FE880CF52D1406E25D7
:10FBB00069276427FE01319610C090819093C6009A
:10FBC0008091C00086FFFCCF31968091C000806498
:10FBD0008093C0006927215030402115310569F715
:10FBE0006093C6008091C00086FFFCCF8091C0006A
:10FBF00080648093C00085B1805885B9772081F4F6
:10FC0000C15DDE4F0881CF52D1400F5FC15DDE4F35
:10FC10000883CF52D14090E0A0E0B0E00D941AF4F8
:10FC200027982F9880E090E020ED37E0F901319798
:10FC3000F1F7019684369105C9F700008091C00064
:10FC40008D7F8093C00081E180935700E895EE2777
:10FC5000FF270994FFCF90E00D941AF497FB092E2B
:10FC600007260AD077FD04D02ED006D000201AF443
:10FC7000709561957F4F0895F6F7909581959F4F08
:10FC80000895A1E21A2EAA1BBB1BFD010DC0AA1FDD
:10FC9000BB1FEE1FFF1FA217B307E407F50720F0F5
:10FCA000A21BB30BE40BF50B661F771F881F991F70
:10FCB0001A9469F760957095809590959B01AC01B9
:10FCC000BD01CF010895AA1BBB1B51E107C0AA1FAC
:10FCD000BB1FA617B70710F0A61BB70B881F991FED
:10FCE0005A95A9F780959095BC01CD010895F99991
:10FCF000FECF92BD81BDF89A992780B50895262F31
:10FD0000F999FECF1FBA92BD81BD20BD0FB6F89400
:0EFD1000FA9AF99A0FBE01960895F894FFCF63
:040000033000E000E9
:00000001FF